{
  "contractName": "AnimalNFT",
  "abi": [
    {
      "inputs": [],
      "stateMutability": "nonpayable",
      "type": "constructor"
    },
    {
      "anonymous": false,
      "inputs": [
        {
          "indexed": true,
          "internalType": "address",
          "name": "owner",
          "type": "address"
        },
        {
          "indexed": true,
          "internalType": "address",
          "name": "approved",
          "type": "address"
        },
        {
          "indexed": true,
          "internalType": "uint256",
          "name": "tokenId",
          "type": "uint256"
        }
      ],
      "name": "Approval",
      "type": "event"
    },
    {
      "anonymous": false,
      "inputs": [
        {
          "indexed": true,
          "internalType": "address",
          "name": "owner",
          "type": "address"
        },
        {
          "indexed": true,
          "internalType": "address",
          "name": "operator",
          "type": "address"
        },
        {
          "indexed": false,
          "internalType": "bool",
          "name": "approved",
          "type": "bool"
        }
      ],
      "name": "ApprovalForAll",
      "type": "event"
    },
    {
      "anonymous": false,
      "inputs": [
        {
          "indexed": true,
          "internalType": "address",
          "name": "from",
          "type": "address"
        },
        {
          "indexed": true,
          "internalType": "address",
          "name": "to",
          "type": "address"
        },
        {
          "indexed": true,
          "internalType": "uint256",
          "name": "tokenId",
          "type": "uint256"
        }
      ],
      "name": "Transfer",
      "type": "event"
    },
    {
      "inputs": [
        {
          "internalType": "address",
          "name": "to",
          "type": "address"
        },
        {
          "internalType": "uint256",
          "name": "tokenId",
          "type": "uint256"
        }
      ],
      "name": "approve",
      "outputs": [],
      "stateMutability": "nonpayable",
      "type": "function"
    },
    {
      "inputs": [
        {
          "internalType": "address",
          "name": "owner",
          "type": "address"
        }
      ],
      "name": "balanceOf",
      "outputs": [
        {
          "internalType": "uint256",
          "name": "",
          "type": "uint256"
        }
      ],
      "stateMutability": "view",
      "type": "function",
      "constant": true
    },
    {
      "inputs": [
        {
          "internalType": "uint256",
          "name": "tokenId",
          "type": "uint256"
        }
      ],
      "name": "getApproved",
      "outputs": [
        {
          "internalType": "address",
          "name": "",
          "type": "address"
        }
      ],
      "stateMutability": "view",
      "type": "function",
      "constant": true
    },
    {
      "inputs": [
        {
          "internalType": "address",
          "name": "owner",
          "type": "address"
        },
        {
          "internalType": "address",
          "name": "operator",
          "type": "address"
        }
      ],
      "name": "isApprovedForAll",
      "outputs": [
        {
          "internalType": "bool",
          "name": "",
          "type": "bool"
        }
      ],
      "stateMutability": "view",
      "type": "function",
      "constant": true
    },
    {
      "inputs": [],
      "name": "name",
      "outputs": [
        {
          "internalType": "string",
          "name": "",
          "type": "string"
        }
      ],
      "stateMutability": "view",
      "type": "function",
      "constant": true
    },
    {
      "inputs": [
        {
          "internalType": "uint256",
          "name": "tokenId",
          "type": "uint256"
        }
      ],
      "name": "ownerOf",
      "outputs": [
        {
          "internalType": "address",
          "name": "",
          "type": "address"
        }
      ],
      "stateMutability": "view",
      "type": "function",
      "constant": true
    },
    {
      "inputs": [
        {
          "internalType": "address",
          "name": "from",
          "type": "address"
        },
        {
          "internalType": "address",
          "name": "to",
          "type": "address"
        },
        {
          "internalType": "uint256",
          "name": "tokenId",
          "type": "uint256"
        }
      ],
      "name": "safeTransferFrom",
      "outputs": [],
      "stateMutability": "nonpayable",
      "type": "function"
    },
    {
      "inputs": [
        {
          "internalType": "address",
          "name": "from",
          "type": "address"
        },
        {
          "internalType": "address",
          "name": "to",
          "type": "address"
        },
        {
          "internalType": "uint256",
          "name": "tokenId",
          "type": "uint256"
        },
        {
          "internalType": "bytes",
          "name": "data",
          "type": "bytes"
        }
      ],
      "name": "safeTransferFrom",
      "outputs": [],
      "stateMutability": "nonpayable",
      "type": "function"
    },
    {
      "inputs": [
        {
          "internalType": "address",
          "name": "operator",
          "type": "address"
        },
        {
          "internalType": "bool",
          "name": "approved",
          "type": "bool"
        }
      ],
      "name": "setApprovalForAll",
      "outputs": [],
      "stateMutability": "nonpayable",
      "type": "function"
    },
    {
      "inputs": [
        {
          "internalType": "bytes4",
          "name": "interfaceId",
          "type": "bytes4"
        }
      ],
      "name": "supportsInterface",
      "outputs": [
        {
          "internalType": "bool",
          "name": "",
          "type": "bool"
        }
      ],
      "stateMutability": "view",
      "type": "function",
      "constant": true
    },
    {
      "inputs": [],
      "name": "symbol",
      "outputs": [
        {
          "internalType": "string",
          "name": "",
          "type": "string"
        }
      ],
      "stateMutability": "view",
      "type": "function",
      "constant": true
    },
    {
      "inputs": [
        {
          "internalType": "uint256",
          "name": "index",
          "type": "uint256"
        }
      ],
      "name": "tokenByIndex",
      "outputs": [
        {
          "internalType": "uint256",
          "name": "",
          "type": "uint256"
        }
      ],
      "stateMutability": "view",
      "type": "function",
      "constant": true
    },
    {
      "inputs": [
        {
          "internalType": "address",
          "name": "owner",
          "type": "address"
        },
        {
          "internalType": "uint256",
          "name": "index",
          "type": "uint256"
        }
      ],
      "name": "tokenOfOwnerByIndex",
      "outputs": [
        {
          "internalType": "uint256",
          "name": "",
          "type": "uint256"
        }
      ],
      "stateMutability": "view",
      "type": "function",
      "constant": true
    },
    {
      "inputs": [
        {
          "internalType": "uint256",
          "name": "tokenId",
          "type": "uint256"
        }
      ],
      "name": "tokenURI",
      "outputs": [
        {
          "internalType": "string",
          "name": "",
          "type": "string"
        }
      ],
      "stateMutability": "view",
      "type": "function",
      "constant": true
    },
    {
      "inputs": [],
      "name": "totalSupply",
      "outputs": [
        {
          "internalType": "uint256",
          "name": "",
          "type": "uint256"
        }
      ],
      "stateMutability": "view",
      "type": "function",
      "constant": true
    },
    {
      "inputs": [
        {
          "internalType": "address",
          "name": "from",
          "type": "address"
        },
        {
          "internalType": "address",
          "name": "to",
          "type": "address"
        },
        {
          "internalType": "uint256",
          "name": "tokenId",
          "type": "uint256"
        }
      ],
      "name": "transferFrom",
      "outputs": [],
      "stateMutability": "nonpayable",
      "type": "function"
    },
    {
      "inputs": [
        {
          "internalType": "string",
          "name": "animalURI",
          "type": "string"
        },
        {
          "internalType": "uint256",
          "name": "class",
          "type": "uint256"
        }
      ],
      "name": "create",
      "outputs": [
        {
          "internalType": "uint256",
          "name": "",
          "type": "uint256"
        }
      ],
      "stateMutability": "nonpayable",
      "type": "function"
    },
    {
      "inputs": [
        {
          "internalType": "uint256",
          "name": "tokenId",
          "type": "uint256"
        }
      ],
      "name": "getTokenURI",
      "outputs": [
        {
          "internalType": "string",
          "name": "",
          "type": "string"
        }
      ],
      "stateMutability": "view",
      "type": "function",
      "constant": true
    },
    {
      "inputs": [
        {
          "internalType": "uint256",
          "name": "tokenId",
          "type": "uint256"
        }
      ],
      "name": "getMinter",
      "outputs": [
        {
          "internalType": "address",
          "name": "",
          "type": "address"
        }
      ],
      "stateMutability": "view",
      "type": "function",
      "constant": true
    },
    {
      "inputs": [
        {
          "internalType": "uint256",
          "name": "tokenId",
          "type": "uint256"
        }
      ],
      "name": "getClass",
      "outputs": [
        {
          "internalType": "uint256",
          "name": "",
          "type": "uint256"
        }
      ],
      "stateMutability": "view",
      "type": "function",
      "constant": true
    }
  ],
  "bytecode": "0x60806040523480156200001157600080fd5b506040518060400160405280600981526020017f416e696d616c4e465400000000000000000000000000000000000000000000008152506040518060400160405280600381526020017f414654000000000000000000000000000000000000000000000000000000000081525081600090816200008f919062000324565b508060019081620000a1919062000324565b5050506200040b565b600081519050919050565b7f4e487b7100000000000000000000000000000000000000000000000000000000600052604160045260246000fd5b7f4e487b7100000000000000000000000000000000000000000000000000000000600052602260045260246000fd5b600060028204905060018216806200012c57607f821691505b602082108103620001425762000141620000e4565b5b50919050565b60008190508160005260206000209050919050565b60006020601f8301049050919050565b600082821b905092915050565b600060088302620001ac7fffffffffffffffffffffffffffffffffffffffffffffffffffffffffffffffff826200016d565b620001b886836200016d565b95508019841693508086168417925050509392505050565b6000819050919050565b6000819050919050565b600062000205620001ff620001f984620001d0565b620001da565b620001d0565b9050919050565b6000819050919050565b6200022183620001e4565b6200023962000230826200020c565b8484546200017a565b825550505050565b600090565b6200025062000241565b6200025d81848462000216565b505050565b5b8181101562000285576200027960008262000246565b60018101905062000263565b5050565b601f821115620002d4576200029e8162000148565b620002a9846200015d565b81016020851015620002b9578190505b620002d1620002c8856200015d565b83018262000262565b50505b505050565b600082821c905092915050565b6000620002f960001984600802620002d9565b1980831691505092915050565b6000620003148383620002e6565b9150826002028217905092915050565b6200032f82620000aa565b67ffffffffffffffff8111156200034b576200034a620000b5565b5b62000357825462000113565b6200036482828562000289565b600060209050601f8311600181146200039c576000841562000387578287015190505b62000393858262000306565b86555062000403565b601f198416620003ac8662000148565b60005b82811015620003d657848901518255600182019150602085019450602081019050620003af565b86831015620003f65784890151620003f2601f891682620002e6565b8355505b6001600288020188555050505b505050505050565b613302806200041b6000396000f3fe608060405234801561001057600080fd5b506004361061012c5760003560e01c80634f6ccce7116100ad57806395d89b411161007157806395d89b41146103a1578063a22cb465146103bf578063b88d4fde146103db578063c87b56dd146103f7578063e985e9c5146104275761012c565b80634f6ccce7146102b1578063512d62df146102e15780635b7121f8146103115780636352211e1461034157806370a08231146103715761012c565b806323b872dd116100f457806323b872dd146101e95780632f745c59146102055780633bb3a24d1461023557806342842e0e1461026557806346f81a87146102815761012c565b806301ffc9a71461013157806306fdde0314610161578063081812fc1461017f578063095ea7b3146101af57806318160ddd146101cb575b600080fd5b61014b60048036038101906101469190611f2e565b610457565b6040516101589190611f76565b60405180910390f35b6101696104d1565b6040516101769190612021565b60405180910390f35b61019960048036038101906101949190612079565b610563565b6040516101a691906120e7565b60405180910390f35b6101c960048036038101906101c4919061212e565b6105a9565b005b6101d36106c0565b6040516101e0919061217d565b60405180910390f35b61020360048036038101906101fe9190612198565b6106cd565b005b61021f600480360381019061021a919061212e565b61072d565b60405161022c919061217d565b60405180910390f35b61024f600480360381019061024a9190612079565b6107d2565b60405161025c9190612021565b60405180910390f35b61027f600480360381019061027a9190612198565b610877565b005b61029b60048036038101906102969190612320565b610897565b6040516102a8919061217d565b60405180910390f35b6102cb60048036038101906102c69190612079565b6108e3565b6040516102d8919061217d565b60405180910390f35b6102fb60048036038101906102f69190612079565b610954565b604051610308919061217d565b60405180910390f35b61032b60048036038101906103269190612079565b610971565b60405161033891906120e7565b60405180910390f35b61035b60048036038101906103569190612079565b6109ae565b60405161036891906120e7565b60405180910390f35b61038b6004803603810190610386919061237c565b610a5f565b604051610398919061217d565b60405180910390f35b6103a9610b16565b6040516103b69190612021565b60405180910390f35b6103d960048036038101906103d491906123d5565b610ba8565b005b6103f560048036038101906103f091906124b6565b610bbe565b005b610411600480360381019061040c9190612079565b610c20565b60405161041e9190612021565b60405180910390f35b610441600480360381019061043c9190612539565b610c88565b60405161044e9190611f76565b60405180910390f35b60007f780e9d63000000000000000000000000000000000000000000000000000000007bffffffffffffffffffffffffffffffffffffffffffffffffffffffff1916827bffffffffffffffffffffffffffffffffffffffffffffffffffffffff191614806104ca57506104c982610d1c565b5b9050919050565b6060600080546104e0906125a8565b80601f016020809104026020016040519081016040528092919081815260200182805461050c906125a8565b80156105595780601f1061052e57610100808354040283529160200191610559565b820191906000526020600020905b81548152906001019060200180831161053c57829003601f168201915b5050505050905090565b600061056e82610dfe565b6004600083815260200190815260200160002060009054906101000a900473ffffffffffffffffffffffffffffffffffffffff169050919050565b60006105b4826109ae565b90508073ffffffffffffffffffffffffffffffffffffffff168373ffffffffffffffffffffffffffffffffffffffff1603610624576040517f08c379a000000000000000000000000000000000000000000000000000000000815260040161061b9061264b565b60405180910390fd5b8073ffffffffffffffffffffffffffffffffffffffff16610643610e49565b73ffffffffffffffffffffffffffffffffffffffff16148061067257506106718161066c610e49565b610c88565b5b6106b1576040517f08c379a00000000000000000000000000000000000000000000000000000000081526004016106a8906126dd565b60405180910390fd5b6106bb8383610e51565b505050565b6000600880549050905090565b6106de6106d8610e49565b82610f0a565b61071d576040517f08c379a00000000000000000000000000000000000000000000000000000000081526004016107149061276f565b60405180910390fd5b610728838383610f9f565b505050565b600061073883610a5f565b8210610779576040517f08c379a000000000000000000000000000000000000000000000000000000000815260040161077090612801565b60405180910390fd5b600660008473ffffffffffffffffffffffffffffffffffffffff1673ffffffffffffffffffffffffffffffffffffffff168152602001908152602001600020600083815260200190815260200160002054905092915050565b6060600b600083815260200190815260200160002080546107f2906125a8565b80601f016020809104026020016040519081016040528092919081815260200182805461081e906125a8565b801561086b5780601f106108405761010080835404028352916020019161086b565b820191906000526020600020905b81548152906001019060200180831161084e57829003601f168201915b50505050509050919050565b61089283838360405180602001604052806000815250610bbe565b505050565b60006108a3600a611205565b60006108af600a61121b565b90506108bb3382611229565b6108c58133611402565b6108cf8185611458565b6108d981846114c5565b8091505092915050565b60006108ed6106c0565b821061092e576040517f08c379a000000000000000000000000000000000000000000000000000000000815260040161092590612893565b60405180910390fd5b60088281548110610942576109416128b3565b5b90600052602060002001549050919050565b6000600c6000838152602001908152602001600020549050919050565b6000600d600083815260200190815260200160002060009054906101000a900473ffffffffffffffffffffffffffffffffffffffff169050919050565b6000806002600084815260200190815260200160002060009054906101000a900473ffffffffffffffffffffffffffffffffffffffff169050600073ffffffffffffffffffffffffffffffffffffffff168173ffffffffffffffffffffffffffffffffffffffff1603610a56576040517f08c379a0000000000000000000000000000000000000000000000000000000008152600401610a4d9061292e565b60405180910390fd5b80915050919050565b60008073ffffffffffffffffffffffffffffffffffffffff168273ffffffffffffffffffffffffffffffffffffffff1603610acf576040517f08c379a0000000000000000000000000000000000000000000000000000000008152600401610ac6906129c0565b60405180910390fd5b600360008373ffffffffffffffffffffffffffffffffffffffff1673ffffffffffffffffffffffffffffffffffffffff168152602001908152602001600020549050919050565b606060018054610b25906125a8565b80601f0160208091040260200160405190810160405280929190818152602001828054610b51906125a8565b8015610b9e5780601f10610b7357610100808354040283529160200191610b9e565b820191906000526020600020905b815481529060010190602001808311610b8157829003601f168201915b5050505050905090565b610bba610bb3610e49565b83836114e1565b5050565b610bcf610bc9610e49565b83610f0a565b610c0e576040517f08c379a0000000000000000000000000000000000000000000000000000000008152600401610c059061276f565b60405180910390fd5b610c1a8484848461164d565b50505050565b6060610c2b82610dfe565b6000610c356116a9565b90506000815111610c555760405180602001604052806000815250610c80565b80610c5f846116c0565b604051602001610c70929190612a1c565b6040516020818303038152906040525b915050919050565b6000600560008473ffffffffffffffffffffffffffffffffffffffff1673ffffffffffffffffffffffffffffffffffffffff16815260200190815260200160002060008373ffffffffffffffffffffffffffffffffffffffff1673ffffffffffffffffffffffffffffffffffffffff16815260200190815260200160002060009054906101000a900460ff16905092915050565b60007f80ac58cd000000000000000000000000000000000000000000000000000000007bffffffffffffffffffffffffffffffffffffffffffffffffffffffff1916827bffffffffffffffffffffffffffffffffffffffffffffffffffffffff19161480610de757507f5b5e139f000000000000000000000000000000000000000000000000000000007bffffffffffffffffffffffffffffffffffffffffffffffffffffffff1916827bffffffffffffffffffffffffffffffffffffffffffffffffffffffff1916145b80610df75750610df682611820565b5b9050919050565b610e078161188a565b610e46576040517f08c379a0000000000000000000000000000000000000000000000000000000008152600401610e3d9061292e565b60405180910390fd5b50565b600033905090565b816004600083815260200190815260200160002060006101000a81548173ffffffffffffffffffffffffffffffffffffffff021916908373ffffffffffffffffffffffffffffffffffffffff160217905550808273ffffffffffffffffffffffffffffffffffffffff16610ec4836109ae565b73ffffffffffffffffffffffffffffffffffffffff167f8c5be1e5ebec7d5bd14f71427d1e84f3dd0314c0f7b2291e5b200ac8c7c3b92560405160405180910390a45050565b600080610f16836109ae565b90508073ffffffffffffffffffffffffffffffffffffffff168473ffffffffffffffffffffffffffffffffffffffff161480610f585750610f578185610c88565b5b80610f9657508373ffffffffffffffffffffffffffffffffffffffff16610f7e84610563565b73ffffffffffffffffffffffffffffffffffffffff16145b91505092915050565b8273ffffffffffffffffffffffffffffffffffffffff16610fbf826109ae565b73ffffffffffffffffffffffffffffffffffffffff1614611015576040517f08c379a000000000000000000000000000000000000000000000000000000000815260040161100c90612ab2565b60405180910390fd5b600073ffffffffffffffffffffffffffffffffffffffff168273ffffffffffffffffffffffffffffffffffffffff1603611084576040517f08c379a000000000000000000000000000000000000000000000000000000000815260040161107b90612b44565b60405180910390fd5b61108f8383836118f6565b61109a600082610e51565b6001600360008573ffffffffffffffffffffffffffffffffffffffff1673ffffffffffffffffffffffffffffffffffffffff16815260200190815260200160002060008282546110ea9190612b93565b925050819055506001600360008473ffffffffffffffffffffffffffffffffffffffff1673ffffffffffffffffffffffffffffffffffffffff16815260200190815260200160002060008282546111419190612bc7565b92505081905550816002600083815260200190815260200160002060006101000a81548173ffffffffffffffffffffffffffffffffffffffff021916908373ffffffffffffffffffffffffffffffffffffffff160217905550808273ffffffffffffffffffffffffffffffffffffffff168473ffffffffffffffffffffffffffffffffffffffff167fddf252ad1be2c89b69c2b068fc378daa952ba7f163c4a11628f55a4df523b3ef60405160405180910390a4611200838383611a08565b505050565b6001816000016000828254019250508190555050565b600081600001549050919050565b600073ffffffffffffffffffffffffffffffffffffffff168273ffffffffffffffffffffffffffffffffffffffff1603611298576040517f08c379a000000000000000000000000000000000000000000000000000000000815260040161128f90612c47565b60405180910390fd5b6112a18161188a565b156112e1576040517f08c379a00000000000000000000000000000000000000000000000000000000081526004016112d890612cb3565b60405180910390fd5b6112ed600083836118f6565b6001600360008473ffffffffffffffffffffffffffffffffffffffff1673ffffffffffffffffffffffffffffffffffffffff168152602001908152602001600020600082825461133d9190612bc7565b92505081905550816002600083815260200190815260200160002060006101000a81548173ffffffffffffffffffffffffffffffffffffffff021916908373ffffffffffffffffffffffffffffffffffffffff160217905550808273ffffffffffffffffffffffffffffffffffffffff16600073ffffffffffffffffffffffffffffffffffffffff167fddf252ad1be2c89b69c2b068fc378daa952ba7f163c4a11628f55a4df523b3ef60405160405180910390a46113fe60008383611a08565b5050565b80600d600084815260200190815260200160002060006101000a81548173ffffffffffffffffffffffffffffffffffffffff021916908373ffffffffffffffffffffffffffffffffffffffff1602179055505050565b6114618261188a565b6114a0576040517f08c379a000000000000000000000000000000000000000000000000000000000815260040161149790612d45565b60405180910390fd5b80600b600084815260200190815260200160002090816114c09190612f11565b505050565b80600c6000848152602001908152602001600020819055505050565b8173ffffffffffffffffffffffffffffffffffffffff168373ffffffffffffffffffffffffffffffffffffffff160361154f576040517f08c379a00000000000000000000000000000000000000000000000000000000081526004016115469061302f565b60405180910390fd5b80600560008573ffffffffffffffffffffffffffffffffffffffff1673ffffffffffffffffffffffffffffffffffffffff16815260200190815260200160002060008473ffffffffffffffffffffffffffffffffffffffff1673ffffffffffffffffffffffffffffffffffffffff16815260200190815260200160002060006101000a81548160ff0219169083151502179055508173ffffffffffffffffffffffffffffffffffffffff168373ffffffffffffffffffffffffffffffffffffffff167f17307eab39ab6107e8899845ad3d59bd9653f200f220920489ca2b5937696c31836040516116409190611f76565b60405180910390a3505050565b611658848484610f9f565b61166484848484611a0d565b6116a3576040517f08c379a000000000000000000000000000000000000000000000000000000000815260040161169a906130c1565b60405180910390fd5b50505050565b606060405180602001604052806000815250905090565b606060008203611707576040518060400160405280600181526020017f3000000000000000000000000000000000000000000000000000000000000000815250905061181b565b600082905060005b60008214611739578080611722906130e1565b915050600a826117329190613158565b915061170f565b60008167ffffffffffffffff811115611755576117546121f5565b5b6040519080825280601f01601f1916602001820160405280156117875781602001600182028036833780820191505090505b5090505b60008514611814576001826117a09190612b93565b9150600a856117af9190613189565b60306117bb9190612bc7565b60f81b8183815181106117d1576117d06128b3565b5b60200101907effffffffffffffffffffffffffffffffffffffffffffffffffffffffffffff1916908160001a905350600a8561180d9190613158565b945061178b565b8093505050505b919050565b60007f01ffc9a7000000000000000000000000000000000000000000000000000000007bffffffffffffffffffffffffffffffffffffffffffffffffffffffff1916827bffffffffffffffffffffffffffffffffffffffffffffffffffffffff1916149050919050565b60008073ffffffffffffffffffffffffffffffffffffffff166002600084815260200190815260200160002060009054906101000a900473ffffffffffffffffffffffffffffffffffffffff1673ffffffffffffffffffffffffffffffffffffffff1614159050919050565b611901838383611b94565b600073ffffffffffffffffffffffffffffffffffffffff168373ffffffffffffffffffffffffffffffffffffffff16036119435761193e81611b99565b611982565b8173ffffffffffffffffffffffffffffffffffffffff168373ffffffffffffffffffffffffffffffffffffffff1614611981576119808382611be2565b5b5b600073ffffffffffffffffffffffffffffffffffffffff168273ffffffffffffffffffffffffffffffffffffffff16036119c4576119bf81611d4f565b611a03565b8273ffffffffffffffffffffffffffffffffffffffff168273ffffffffffffffffffffffffffffffffffffffff1614611a0257611a018282611e20565b5b5b505050565b505050565b6000611a2e8473ffffffffffffffffffffffffffffffffffffffff16611e9f565b15611b87578373ffffffffffffffffffffffffffffffffffffffff1663150b7a02611a57610e49565b8786866040518563ffffffff1660e01b8152600401611a79949392919061320f565b6020604051808303816000875af1925050508015611ab557506040513d601f19601f82011682018060405250810190611ab29190613270565b60015b611b37573d8060008114611ae5576040519150601f19603f3d011682016040523d82523d6000602084013e611aea565b606091505b506000815103611b2f576040517f08c379a0000000000000000000000000000000000000000000000000000000008152600401611b26906130c1565b60405180910390fd5b805181602001fd5b63150b7a0260e01b7bffffffffffffffffffffffffffffffffffffffffffffffffffffffff1916817bffffffffffffffffffffffffffffffffffffffffffffffffffffffff191614915050611b8c565b600190505b949350505050565b505050565b6008805490506009600083815260200190815260200160002081905550600881908060018154018082558091505060019003906000526020600020016000909190919091505550565b60006001611bef84610a5f565b611bf99190612b93565b9050600060076000848152602001908152602001600020549050818114611cde576000600660008673ffffffffffffffffffffffffffffffffffffffff1673ffffffffffffffffffffffffffffffffffffffff168152602001908152602001600020600084815260200190815260200160002054905080600660008773ffffffffffffffffffffffffffffffffffffffff1673ffffffffffffffffffffffffffffffffffffffff168152602001908152602001600020600084815260200190815260200160002081905550816007600083815260200190815260200160002081905550505b6007600084815260200190815260200160002060009055600660008573ffffffffffffffffffffffffffffffffffffffff1673ffffffffffffffffffffffffffffffffffffffff16815260200190815260200160002060008381526020019081526020016000206000905550505050565b60006001600880549050611d639190612b93565b9050600060096000848152602001908152602001600020549050600060088381548110611d9357611d926128b3565b5b906000526020600020015490508060088381548110611db557611db46128b3565b5b906000526020600020018190555081600960008381526020019081526020016000208190555060096000858152602001908152602001600020600090556008805480611e0457611e0361329d565b5b6001900381819060005260206000200160009055905550505050565b6000611e2b83610a5f565b905081600660008573ffffffffffffffffffffffffffffffffffffffff1673ffffffffffffffffffffffffffffffffffffffff168152602001908152602001600020600083815260200190815260200160002081905550806007600084815260200190815260200160002081905550505050565b6000808273ffffffffffffffffffffffffffffffffffffffff163b119050919050565b6000604051905090565b600080fd5b600080fd5b60007fffffffff0000000000000000000000000000000000000000000000000000000082169050919050565b611f0b81611ed6565b8114611f1657600080fd5b50565b600081359050611f2881611f02565b92915050565b600060208284031215611f4457611f43611ecc565b5b6000611f5284828501611f19565b91505092915050565b60008115159050919050565b611f7081611f5b565b82525050565b6000602082019050611f8b6000830184611f67565b92915050565b600081519050919050565b600082825260208201905092915050565b60005b83811015611fcb578082015181840152602081019050611fb0565b60008484015250505050565b6000601f19601f8301169050919050565b6000611ff382611f91565b611ffd8185611f9c565b935061200d818560208601611fad565b61201681611fd7565b840191505092915050565b6000602082019050818103600083015261203b8184611fe8565b905092915050565b6000819050919050565b61205681612043565b811461206157600080fd5b50565b6000813590506120738161204d565b92915050565b60006020828403121561208f5761208e611ecc565b5b600061209d84828501612064565b91505092915050565b600073ffffffffffffffffffffffffffffffffffffffff82169050919050565b60006120d1826120a6565b9050919050565b6120e1816120c6565b82525050565b60006020820190506120fc60008301846120d8565b92915050565b61210b816120c6565b811461211657600080fd5b50565b60008135905061212881612102565b92915050565b6000806040838503121561214557612144611ecc565b5b600061215385828601612119565b925050602061216485828601612064565b9150509250929050565b61217781612043565b82525050565b6000602082019050612192600083018461216e565b92915050565b6000806000606084860312156121b1576121b0611ecc565b5b60006121bf86828701612119565b93505060206121d086828701612119565b92505060406121e186828701612064565b9150509250925092565b600080fd5b600080fd5b7f4e487b7100000000000000000000000000000000000000000000000000000000600052604160045260246000fd5b61222d82611fd7565b810181811067ffffffffffffffff8211171561224c5761224b6121f5565b5b80604052505050565b600061225f611ec2565b905061226b8282612224565b919050565b600067ffffffffffffffff82111561228b5761228a6121f5565b5b61229482611fd7565b9050602081019050919050565b82818337600083830152505050565b60006122c36122be84612270565b612255565b9050828152602081018484840111156122df576122de6121f0565b5b6122ea8482856122a1565b509392505050565b600082601f830112612307576123066121eb565b5b81356123178482602086016122b0565b91505092915050565b6000806040838503121561233757612336611ecc565b5b600083013567ffffffffffffffff81111561235557612354611ed1565b5b612361858286016122f2565b925050602061237285828601612064565b9150509250929050565b60006020828403121561239257612391611ecc565b5b60006123a084828501612119565b91505092915050565b6123b281611f5b565b81146123bd57600080fd5b50565b6000813590506123cf816123a9565b92915050565b600080604083850312156123ec576123eb611ecc565b5b60006123fa85828601612119565b925050602061240b858286016123c0565b9150509250929050565b600067ffffffffffffffff8211156124305761242f6121f5565b5b61243982611fd7565b9050602081019050919050565b600061245961245484612415565b612255565b905082815260208101848484011115612475576124746121f0565b5b6124808482856122a1565b509392505050565b600082601f83011261249d5761249c6121eb565b5b81356124ad848260208601612446565b91505092915050565b600080600080608085870312156124d0576124cf611ecc565b5b60006124de87828801612119565b94505060206124ef87828801612119565b935050604061250087828801612064565b925050606085013567ffffffffffffffff81111561252157612520611ed1565b5b61252d87828801612488565b91505092959194509250565b600080604083850312156125505761254f611ecc565b5b600061255e85828601612119565b925050602061256f85828601612119565b9150509250929050565b7f4e487b7100000000000000000000000000000000000000000000000000000000600052602260045260246000fd5b600060028204905060018216806125c057607f821691505b6020821081036125d3576125d2612579565b5b50919050565b7f4552433732313a20617070726f76616c20746f2063757272656e74206f776e6560008201527f7200000000000000000000000000000000000000000000000000000000000000602082015250565b6000612635602183611f9c565b9150612640826125d9565b604082019050919050565b6000602082019050818103600083015261266481612628565b9050919050565b7f4552433732313a20617070726f76652063616c6c6572206973206e6f7420746f60008201527f6b656e206f776e6572206e6f7220617070726f76656420666f7220616c6c0000602082015250565b60006126c7603e83611f9c565b91506126d28261266b565b604082019050919050565b600060208201905081810360008301526126f6816126ba565b9050919050565b7f4552433732313a2063616c6c6572206973206e6f7420746f6b656e206f776e6560008201527f72206e6f7220617070726f766564000000000000000000000000000000000000602082015250565b6000612759602e83611f9c565b9150612764826126fd565b604082019050919050565b600060208201905081810360008301526127888161274c565b9050919050565b7f455243373231456e756d657261626c653a206f776e657220696e646578206f7560008201527f74206f6620626f756e6473000000000000000000000000000000000000000000602082015250565b60006127eb602b83611f9c565b91506127f68261278f565b604082019050919050565b6000602082019050818103600083015261281a816127de565b9050919050565b7f455243373231456e756d657261626c653a20676c6f62616c20696e646578206f60008201527f7574206f6620626f756e64730000000000000000000000000000000000000000602082015250565b600061287d602c83611f9c565b915061288882612821565b604082019050919050565b600060208201905081810360008301526128ac81612870565b9050919050565b7f4e487b7100000000000000000000000000000000000000000000000000000000600052603260045260246000fd5b7f4552433732313a20696e76616c696420746f6b656e2049440000000000000000600082015250565b6000612918601883611f9c565b9150612923826128e2565b602082019050919050565b600060208201905081810360008301526129478161290b565b9050919050565b7f4552433732313a2061646472657373207a65726f206973206e6f74206120766160008201527f6c6964206f776e65720000000000000000000000000000000000000000000000602082015250565b60006129aa602983611f9c565b91506129b58261294e565b604082019050919050565b600060208201905081810360008301526129d98161299d565b9050919050565b600081905092915050565b60006129f682611f91565b612a0081856129e0565b9350612a10818560208601611fad565b80840191505092915050565b6000612a2882856129eb565b9150612a3482846129eb565b91508190509392505050565b7f4552433732313a207472616e736665722066726f6d20696e636f72726563742060008201527f6f776e6572000000000000000000000000000000000000000000000000000000602082015250565b6000612a9c602583611f9c565b9150612aa782612a40565b604082019050919050565b60006020820190508181036000830152612acb81612a8f565b9050919050565b7f4552433732313a207472616e7366657220746f20746865207a65726f2061646460008201527f7265737300000000000000000000000000000000000000000000000000000000602082015250565b6000612b2e602483611f9c565b9150612b3982612ad2565b604082019050919050565b60006020820190508181036000830152612b5d81612b21565b9050919050565b7f4e487b7100000000000000000000000000000000000000000000000000000000600052601160045260246000fd5b6000612b9e82612043565b9150612ba983612043565b9250828203905081811115612bc157612bc0612b64565b5b92915050565b6000612bd282612043565b9150612bdd83612043565b9250828201905080821115612bf557612bf4612b64565b5b92915050565b7f4552433732313a206d696e7420746f20746865207a65726f2061646472657373600082015250565b6000612c31602083611f9c565b9150612c3c82612bfb565b602082019050919050565b60006020820190508181036000830152612c6081612c24565b9050919050565b7f4552433732313a20746f6b656e20616c7265616479206d696e74656400000000600082015250565b6000612c9d601c83611f9c565b9150612ca882612c67565b602082019050919050565b60006020820190508181036000830152612ccc81612c90565b9050919050565b7f45524337323155524953746f726167653a2055524920736574206f66206e6f6e60008201527f6578697374656e7420746f6b656e000000000000000000000000000000000000602082015250565b6000612d2f602e83611f9c565b9150612d3a82612cd3565b604082019050919050565b60006020820190508181036000830152612d5e81612d22565b9050919050565b60008190508160005260206000209050919050565b60006020601f8301049050919050565b600082821b905092915050565b600060088302612dc77fffffffffffffffffffffffffffffffffffffffffffffffffffffffffffffffff82612d8a565b612dd18683612d8a565b95508019841693508086168417925050509392505050565b6000819050919050565b6000612e0e612e09612e0484612043565b612de9565b612043565b9050919050565b6000819050919050565b612e2883612df3565b612e3c612e3482612e15565b848454612d97565b825550505050565b600090565b612e51612e44565b612e5c818484612e1f565b505050565b5b81811015612e8057612e75600082612e49565b600181019050612e62565b5050565b601f821115612ec557612e9681612d65565b612e9f84612d7a565b81016020851015612eae578190505b612ec2612eba85612d7a565b830182612e61565b50505b505050565b600082821c905092915050565b6000612ee860001984600802612eca565b1980831691505092915050565b6000612f018383612ed7565b9150826002028217905092915050565b612f1a82611f91565b67ffffffffffffffff811115612f3357612f326121f5565b5b612f3d82546125a8565b612f48828285612e84565b600060209050601f831160018114612f7b5760008415612f69578287015190505b612f738582612ef5565b865550612fdb565b601f198416612f8986612d65565b60005b82811015612fb157848901518255600182019150602085019450602081019050612f8c565b86831015612fce5784890151612fca601f891682612ed7565b8355505b6001600288020188555050505b505050505050565b7f4552433732313a20617070726f766520746f2063616c6c657200000000000000600082015250565b6000613019601983611f9c565b915061302482612fe3565b602082019050919050565b600060208201905081810360008301526130488161300c565b9050919050565b7f4552433732313a207472616e7366657220746f206e6f6e20455243373231526560008201527f63656976657220696d706c656d656e7465720000000000000000000000000000602082015250565b60006130ab603283611f9c565b91506130b68261304f565b604082019050919050565b600060208201905081810360008301526130da8161309e565b9050919050565b60006130ec82612043565b91507fffffffffffffffffffffffffffffffffffffffffffffffffffffffffffffffff820361311e5761311d612b64565b5b600182019050919050565b7f4e487b7100000000000000000000000000000000000000000000000000000000600052601260045260246000fd5b600061316382612043565b915061316e83612043565b92508261317e5761317d613129565b5b828204905092915050565b600061319482612043565b915061319f83612043565b9250826131af576131ae613129565b5b828206905092915050565b600081519050919050565b600082825260208201905092915050565b60006131e1826131ba565b6131eb81856131c5565b93506131fb818560208601611fad565b61320481611fd7565b840191505092915050565b600060808201905061322460008301876120d8565b61323160208301866120d8565b61323e604083018561216e565b818103606083015261325081846131d6565b905095945050505050565b60008151905061326a81611f02565b92915050565b60006020828403121561328657613285611ecc565b5b60006132948482850161325b565b91505092915050565b7f4e487b7100000000000000000000000000000000000000000000000000000000600052603160045260246000fdfea2646970667358221220ce04679eb17d6e005bddd66e491f7968a3965e26aa592a95319df9a3646120c564736f6c63430008100033",
  "immutableReferences": {},
  "source": "// SPDX-License-Identifier: MIT\npragma solidity ^0.8.4;\n\nimport \"@openzeppelin/contracts/token/ERC721/extensions/ERC721Enumerable.sol\";\nimport \"@openzeppelin/contracts/utils/Counters.sol\";\n\n/*\n*  NFT  ERC-721 Token(NFT)  Contract\n*/\n\ncontract AnimalNFT is ERC721Enumerable {\n  \n    using Counters for Counters.Counter;\n\n    //IERC721Metadata\n    Counters.Counter private _tokenIds;\n    mapping(uint256 => string) private _tokenURIs;\n\n    //   (Contract)   mapping\n    mapping(uint256 => uint256) private _classes;\n    \n    // NFT    Address   mapping\n    mapping(uint256 => address) private _minters;\n\n    constructor() ERC721(\"AnimalNFT\", \"AFT\") public {}\n\n    /*\n    * create\n    *     ERC-721  \n    * (IPFS) URI data    \n    *    Contract mapping \n    * \n    * @ param uint256 tokenId    \n    * @ return None\n    * @ exception None\n    */\n    function create(string memory animalURI, uint256 class) public returns (uint256) {\n        _tokenIds.increment();\n\n        uint256 newTokenId = _tokenIds.current();\n        _mint(msg.sender, newTokenId);\n        _setMinter(newTokenId, msg.sender);\n        _setTokenURI(newTokenId, animalURI);\n        _setClass(newTokenId, class);\n\n        return newTokenId;\n    }\n\n    // ERC721URIStorage: TokenURI setter\n    function _setTokenURI(uint256 tokenId, string memory _tokenURI) internal virtual {\n        require(_exists(tokenId), \"ERC721URIStorage: URI set of nonexistent token\");\n        _tokenURIs[tokenId] = _tokenURI;\n    }\n\n    function _setMinter(uint256 tokenId, address minter) private {\n        _minters[tokenId] = minter;\n    }\n\n    function _setClass(uint256 tokenId, uint256 class) private {\n        _classes[tokenId] = class;\n    }\n\n    function getTokenURI(uint256 tokenId) public view returns (string memory) {\n        return _tokenURIs[tokenId];\n    }\n\n    function getMinter(uint256 tokenId) public view returns (address) {\n        return _minters[tokenId];\n    }\n\n    function getClass(uint256 tokenId) public view returns (uint256) {\n        return _classes[tokenId];\n    }\n\n}",
  "sourcePath": "/Users/jh/workspace/git/S07P21D103//nft-contracts/contracts/AnimalNFT.sol",
  "compiler": {
    "name": "solc",
    "version": "0.8.16+commit.07a7930e.Emscripten.clang"
  },
  "schemaVersion": "3.4.9",
  "updatedAt": "2022-09-01T14:23:24.194Z",
  "networkType": "ethereum",
  "devdoc": {
    "kind": "dev",
    "methods": {
      "approve(address,uint256)": {
        "details": "See {IERC721-approve}."
      },
      "balanceOf(address)": {
        "details": "See {IERC721-balanceOf}."
      },
      "getApproved(uint256)": {
        "details": "See {IERC721-getApproved}."
      },
      "isApprovedForAll(address,address)": {
        "details": "See {IERC721-isApprovedForAll}."
      },
      "name()": {
        "details": "See {IERC721Metadata-name}."
      },
      "ownerOf(uint256)": {
        "details": "See {IERC721-ownerOf}."
      },
      "safeTransferFrom(address,address,uint256)": {
        "details": "See {IERC721-safeTransferFrom}."
      },
      "safeTransferFrom(address,address,uint256,bytes)": {
        "details": "See {IERC721-safeTransferFrom}."
      },
      "setApprovalForAll(address,bool)": {
        "details": "See {IERC721-setApprovalForAll}."
      },
      "supportsInterface(bytes4)": {
        "details": "See {IERC165-supportsInterface}."
      },
      "symbol()": {
        "details": "See {IERC721Metadata-symbol}."
      },
      "tokenByIndex(uint256)": {
        "details": "See {IERC721Enumerable-tokenByIndex}."
      },
      "tokenOfOwnerByIndex(address,uint256)": {
        "details": "See {IERC721Enumerable-tokenOfOwnerByIndex}."
      },
      "tokenURI(uint256)": {
        "details": "See {IERC721Metadata-tokenURI}."
      },
      "totalSupply()": {
        "details": "See {IERC721Enumerable-totalSupply}."
      },
      "transferFrom(address,address,uint256)": {
        "details": "See {IERC721-transferFrom}."
      }
    },
    "version": 1
  },
  "userdoc": {
    "kind": "user",
    "methods": {},
    "version": 1
  }
}